{
  "contractName": "EmployeeStorage",
  "abi": [
    {
      "constant": true,
      "inputs": [],
      "name": "owner",
      "outputs": [
        {
          "name": "",
          "type": "address"
        }
      ],
      "payable": false,
      "stateMutability": "view",
      "type": "function"
    },
    {
      "constant": false,
      "inputs": [
        {
          "name": "newOwner",
          "type": "address"
        }
      ],
      "name": "transferOwnership",
      "outputs": [],
      "payable": false,
      "stateMutability": "nonpayable",
      "type": "function"
    },
    {
      "anonymous": false,
      "inputs": [
        {
          "indexed": true,
          "name": "previousOwner",
          "type": "address"
        },
        {
          "indexed": true,
          "name": "newOwner",
          "type": "address"
        }
      ],
      "name": "OwnershipTransferred",
      "type": "event"
    },
    {
      "constant": false,
      "inputs": [
        {
          "name": "_address",
          "type": "address"
        },
        {
          "name": "_monthlySalary",
          "type": "uint256"
        },
        {
          "name": "_startDate",
          "type": "uint256"
        }
      ],
      "name": "add",
      "outputs": [],
      "payable": false,
      "stateMutability": "nonpayable",
      "type": "function"
    },
    {
      "constant": false,
      "inputs": [
        {
          "name": "_address",
          "type": "address"
        },
        {
          "name": "_newAddress",
          "type": "address"
        }
      ],
      "name": "setAddress",
      "outputs": [],
      "payable": false,
      "stateMutability": "nonpayable",
      "type": "function"
    },
    {
      "constant": false,
      "inputs": [
        {
          "name": "_address",
          "type": "address"
        },
        {
          "name": "_date",
          "type": "uint256"
        }
      ],
      "name": "setlatestPayday",
      "outputs": [],
      "payable": false,
      "stateMutability": "nonpayable",
      "type": "function"
    },
    {
      "constant": false,
      "inputs": [
        {
          "name": "_address",
          "type": "address"
        },
        {
          "name": "_salary",
          "type": "uint256"
        }
      ],
      "name": "setMonthlySalary",
      "outputs": [],
      "payable": false,
      "stateMutability": "nonpayable",
      "type": "function"
    },
    {
      "constant": true,
      "inputs": [],
      "name": "getCount",
      "outputs": [
        {
          "name": "",
          "type": "uint256"
        }
      ],
      "payable": false,
      "stateMutability": "view",
      "type": "function"
    },
    {
      "constant": true,
      "inputs": [
        {
          "name": "_address",
          "type": "address"
        }
      ],
      "name": "getId",
      "outputs": [
        {
          "name": "",
          "type": "uint256"
        }
      ],
      "payable": false,
      "stateMutability": "view",
      "type": "function"
    },
    {
      "constant": true,
      "inputs": [
        {
          "name": "_id",
          "type": "uint256"
        }
      ],
      "name": "getAddress",
      "outputs": [
        {
          "name": "",
          "type": "address"
        }
      ],
      "payable": false,
      "stateMutability": "view",
      "type": "function"
    },
    {
      "constant": true,
      "inputs": [
        {
          "name": "_address",
          "type": "address"
        }
      ],
      "name": "getLatestPayday",
      "outputs": [
        {
          "name": "",
          "type": "uint256"
        }
      ],
      "payable": false,
      "stateMutability": "view",
      "type": "function"
    },
    {
      "constant": true,
      "inputs": [
        {
          "name": "_address",
          "type": "address"
        }
      ],
      "name": "getMonthlySalary",
      "outputs": [
        {
          "name": "",
          "type": "uint256"
        }
      ],
      "payable": false,
      "stateMutability": "view",
      "type": "function"
    },
    {
      "constant": false,
      "inputs": [
        {
          "name": "_address",
          "type": "address"
        }
      ],
      "name": "remove",
      "outputs": [],
      "payable": false,
      "stateMutability": "nonpayable",
      "type": "function"
    }
  ],
  "bytecode": "0x60606040526001805560008054600160a060020a033316600160a060020a03199091161790556106c7806100346000396000f3006060604052600436106100b95763ffffffff7c01000000000000000000000000000000000000000000000000000000006000350416630da32a6b81146100be57806328fca743146100ef57806329092d0e146101135780633b58524d146101325780634b051a8b146101575780635101e128146101765780635bf1e2e11461019b57806365f68c89146101bd5780638da5cb5b146101dc578063a87d942c1461020b578063b93f9b0a1461021e578063f2fde38b14610234575b600080fd5b34156100c957600080fd5b6100dd600160a060020a0360043516610253565b60405190815260200160405180910390f35b34156100fa57600080fd5b610111600160a060020a0360043516602435610282565b005b341561011e57600080fd5b610111600160a060020a03600435166102cc565b341561013d57600080fd5b610111600160a060020a0360043581169060243516610364565b341561016257600080fd5b6100dd600160a060020a0360043516610414565b341561018157600080fd5b610111600160a060020a0360043516602435604435610443565b34156101a657600080fd5b610111600160a060020a036004351660243561050f565b34156101c857600080fd5b6100dd600160a060020a0360043516610556565b34156101e757600080fd5b6101ef610585565b604051600160a060020a03909116815260200160405180910390f35b341561021657600080fd5b6100dd610594565b341561022957600080fd5b6101ef60043561059a565b341561023f57600080fd5b610111600160a060020a03600435166105d9565b60008161025f81610674565b5460ff16151561026e57600080fd5b61027783610674565b600401549392505050565b6000805433600160a060020a0390811691161461029e57600080fd5b826102a881610674565b5460ff1615156102b757600080fd5b6102c084610674565b60050192909255505050565b6000805433600160a060020a039081169116146102e857600080fd5b816102f281610674565b5460ff16151561030157600080fd5b61030a83610674565b60006004820181905560058201819055815460ff1916825560018201556002808201805473ffffffffffffffffffffffffffffffffffffffff19908116909155600390920180549092169091558054600019019055505050565b6000805433600160a060020a0390811691161461038057600080fd5b8261038a81610674565b5460ff16151561039957600080fd5b826103a381610674565b5460ff16156103b157600080fd5b6103ba85610674565b600160a060020a0395861660009081526004602052604080822082905560028301805473ffffffffffffffffffffffffffffffffffffffff1916979098169687179097556001909101549481529490942092909255505050565b60008161042081610674565b5460ff16151561042f57600080fd5b61043883610674565b600501549392505050565b60005433600160a060020a0390811691161461045e57600080fd5b8261046881610674565b5460ff161561047657600080fd5b50600180546000908152600360209081526040808320805460ff19168517905583548084528184208086019190915560029081018054600160a060020a0390991673ffffffffffffffffffffffffffffffffffffffff1990991689179055845484528184206004908101969096558454845281842060050196909655835496835293905291909120839055815481019091559081019055565b60005433600160a060020a0390811691161461052a57600080fd5b8161053481610674565b5460ff16151561054357600080fd5b8161054d84610674565b60040155505050565b60008161056281610674565b5460ff16151561057157600080fd5b61057a83610674565b600101549392505050565b600054600160a060020a031681565b60025490565b600081815260036020526040812054829060ff1615156105b957600080fd5b5050600090815260036020526040902060020154600160a060020a031690565b60005433600160a060020a039081169116146105f457600080fd5b600160a060020a038116151561060957600080fd5b600054600160a060020a0380831691167f8be0079c531659141344cd1fd0a4f28419497f9722a3daafe3b4186f6b6457e060405160405180910390a36000805473ffffffffffffffffffffffffffffffffffffffff1916600160a060020a0392909216919091179055565b600160a060020a0316600090815260046020908152604080832054835260039091529020905600a165627a7a723058207ff0b3ec17241c98812e3781b46e73808e52d442b676c199e51cc52095aa97010029",
  "source": "pragma solidity ^0.4.19;\n\n/// @title EmployeeStorage contract - Manage employees for Payroll contract.\n/// @author Nicolas frega - <nicolas.frega@srax.com>\n\nimport './InterfaceEmployeeStorage.sol';\nimport \"zeppelin-solidity/contracts/ownership/Ownable.sol\";\nimport \"zeppelin-solidity/contracts/math/SafeMath.sol\";\n\ncontract EmployeeStorage is InterfaceEmployeeStorage, Ownable {\n    using SafeMath for uint256;\n\n    /*\n     *  Storage\n     */\n    struct Employee {\n        bool exists;\n        uint256 id;\n        address accountAddress;\n\n        address tokenContractAddress;\n        uint256 latestPayday;\n        uint256 monthlySalary;\n    }\n\n    uint256 nextEmployeeId = 1;\n    uint256 employeeCount;\n\n    mapping (uint256 => Employee) employessById;\n    mapping (address => uint256) employessByAddress;\n\n    /*\n     *  Modifiers\n     */\n    modifier existingEmployeeAddress(address _address) {\n        require(getEmployee(_address).exists);\n        _;\n    }\n\n    modifier existingEmployeeId(uint256 _id) {\n        require(employessById[_id].exists);\n        _;\n    }\n\n    modifier notExistingEmployeeAddress(address _address) {\n        require(!getEmployee(_address).exists);\n        _;\n    }\n\n    /*\n     * Public functions\n     */\n     /// @dev adds a new employee.\n     /// @param _address Address of new employee.\n     /// @param _monthlySalary uint of salary.\n     /// @param _startDate uint of starting date.\n    function add(address _address, uint256 _monthlySalary, uint256 _startDate)\n        public\n        onlyOwner\n        notExistingEmployeeAddress(_address)\n    {\n        employessById[nextEmployeeId].exists = true;\n        employessById[nextEmployeeId].id = nextEmployeeId;\n        employessById[nextEmployeeId].accountAddress = _address;\n        employessById[nextEmployeeId].latestPayday = _startDate;\n        employessById[nextEmployeeId].monthlySalary = _monthlySalary;\n\n        employessByAddress[_address] = nextEmployeeId;\n        employeeCount++;\n        nextEmployeeId++;\n    }\n\n    /// @dev changes the address of an existing employee.\n    /// @param _address Address of existing employee .\n    /// @param _newAddress new Address of employee.\n    function setAddress(address _address, address _newAddress)\n        public\n        onlyOwner\n        existingEmployeeAddress(_address)\n        notExistingEmployeeAddress(_newAddress)\n    {\n        Employee storage employee = getEmployee(_address);\n        delete employessByAddress[_address];\n        employee.accountAddress = _newAddress;\n        employessByAddress[_newAddress] = employee.id;\n    }\n\n    /// @dev changes the payday of an existing employee.\n    /// @param _address Address of employee.\n    /// @param _date uint of new pay day.\n    function setlatestPayday(address _address, uint256 _date)\n        public\n        onlyOwner\n        existingEmployeeAddress(_address)\n    {\n        getEmployee(_address).latestPayday = _date;\n    }\n\n    /// @dev changes the salary of an existing employee.\n    /// @param _address address of existing employee .\n    /// @param _salary uint of new pay day.\n    function setMonthlySalary(address _address, uint256 _salary)\n        public\n        onlyOwner\n        existingEmployeeAddress(_address)\n    {\n        Employee storage employee = getEmployee(_address);\n        employee.monthlySalary = _salary;\n    }\n\n    /// @dev gets the total employee count.\n    /// @return Returns employee count.\n    function getCount()\n        public\n        constant\n        returns (uint256)\n    {\n        return employeeCount;\n    }\n\n    /// @dev gets the employee ID.\n    /// @param _address Address of existing employee.\n    /// @return Returns employee ID.\n    function getId(address _address)\n        public\n        existingEmployeeAddress(_address)\n        constant\n        returns (uint256)\n    {\n        return getEmployee(_address).id;\n    }\n\n    /// @dev gets the total employee address from ID.\n    /// @param _id ID of existing employee.\n    /// @return Returns employee address.\n    function getAddress(uint256 _id)\n        public\n        existingEmployeeId(_id)\n        constant\n        returns (address)\n    {\n        return employessById[_id].accountAddress;\n    }\n\n    /// @dev gets the latest employee pay day.\n    /// @param _address Address of existing employee.\n    /// @return Returns employee pay day.\n    function getLatestPayday(address _address)\n        public\n        existingEmployeeAddress(_address)\n        constant\n        returns (uint256)\n    {\n        return getEmployee(_address).latestPayday;\n    }\n\n    /// @dev gets the employee salary.\n    /// @param _address Address of existing employee.\n    /// @return Returns employee salary.\n    function getMonthlySalary(address _address)\n        public\n        existingEmployeeAddress(_address)\n        constant\n        returns (uint256)\n    {\n        return getEmployee(_address).monthlySalary;\n    }\n\n\n    /// @dev removes and employee.\n    /// @param _address Address of existing employee.\n    function remove(address _address)\n        public\n        onlyOwner\n        existingEmployeeAddress(_address)\n    {\n        Employee storage employee = getEmployee(_address);\n        delete employee.latestPayday;\n        delete employee.monthlySalary;\n        delete employee.exists;\n        delete employee.id;\n        delete employee.accountAddress;\n        delete employee.tokenContractAddress;\n\n        employeeCount--;\n    }\n\n    /*\n     * Internal functions\n     */\n     //get employee function\n     function getEmployee(address _address)\n        internal\n        constant\n        returns (Employee storage employee)\n    {\n         uint256 employeeId = employessByAddress[_address];\n         return employessById[employeeId];\n     }\n\n}\n",
  "sourcePath": "/home/nico/Desktop/public_repos/payroll/contracts/EmployeeStorage.sol",
  "compiler": {
    "name": "solc",
    "version": "0.4.21+commit.dfe3193c.Emscripten.clang"
  },
  "schemaVersion": "2.0.0",
  "updatedAt": "2018-04-14T21:12:55.540Z"
}