{
  "contractName": "Payroll",
  "abi": [
    {
      "constant": true,
      "inputs": [],
      "name": "owner",
      "outputs": [
        {
          "name": "",
          "type": "address"
        }
      ],
      "payable": false,
      "stateMutability": "view",
      "type": "function"
    },
    {
      "constant": true,
      "inputs": [],
      "name": "employeeToken",
      "outputs": [
        {
          "name": "",
          "type": "address"
        }
      ],
      "payable": false,
      "stateMutability": "view",
      "type": "function"
    },
    {
      "constant": true,
      "inputs": [],
      "name": "employeeStorage",
      "outputs": [
        {
          "name": "",
          "type": "address"
        }
      ],
      "payable": false,
      "stateMutability": "view",
      "type": "function"
    },
    {
      "constant": false,
      "inputs": [
        {
          "name": "newOwner",
          "type": "address"
        }
      ],
      "name": "transferOwnership",
      "outputs": [],
      "payable": false,
      "stateMutability": "nonpayable",
      "type": "function"
    },
    {
      "inputs": [],
      "payable": false,
      "stateMutability": "nonpayable",
      "type": "constructor"
    },
    {
      "payable": true,
      "stateMutability": "payable",
      "type": "fallback"
    },
    {
      "anonymous": false,
      "inputs": [
        {
          "indexed": true,
          "name": "sender",
          "type": "address"
        },
        {
          "indexed": false,
          "name": "value",
          "type": "uint256"
        }
      ],
      "name": "Deposit",
      "type": "event"
    },
    {
      "anonymous": false,
      "inputs": [
        {
          "indexed": true,
          "name": "newEmployee",
          "type": "address"
        }
      ],
      "name": "NewEmployee",
      "type": "event"
    },
    {
      "anonymous": false,
      "inputs": [
        {
          "indexed": true,
          "name": "newAddress",
          "type": "address"
        }
      ],
      "name": "EmployeeAddressChange",
      "type": "event"
    },
    {
      "anonymous": false,
      "inputs": [
        {
          "indexed": true,
          "name": "employeeAddress",
          "type": "address"
        },
        {
          "indexed": true,
          "name": "newPayday",
          "type": "uint256"
        }
      ],
      "name": "EmployeePaydayChange",
      "type": "event"
    },
    {
      "anonymous": false,
      "inputs": [
        {
          "indexed": true,
          "name": "employeeAddress",
          "type": "address"
        },
        {
          "indexed": true,
          "name": "newSalary",
          "type": "uint256"
        }
      ],
      "name": "EmployeeSalaryChange",
      "type": "event"
    },
    {
      "anonymous": false,
      "inputs": [
        {
          "indexed": true,
          "name": "employeeAddress",
          "type": "address"
        },
        {
          "indexed": false,
          "name": "indexed_id",
          "type": "uint256"
        }
      ],
      "name": "EmployeeRemoved",
      "type": "event"
    },
    {
      "anonymous": false,
      "inputs": [
        {
          "indexed": true,
          "name": "employeeAddress",
          "type": "address"
        },
        {
          "indexed": false,
          "name": "payPeriod",
          "type": "uint256"
        }
      ],
      "name": "EmployeePayed",
      "type": "event"
    },
    {
      "anonymous": false,
      "inputs": [
        {
          "indexed": true,
          "name": "previousOwner",
          "type": "address"
        },
        {
          "indexed": true,
          "name": "newOwner",
          "type": "address"
        }
      ],
      "name": "OwnershipTransferred",
      "type": "event"
    },
    {
      "constant": false,
      "inputs": [
        {
          "name": "_address",
          "type": "address"
        },
        {
          "name": "_monthlySalary",
          "type": "uint256"
        },
        {
          "name": "_startDate",
          "type": "uint256"
        }
      ],
      "name": "addEmployee",
      "outputs": [],
      "payable": false,
      "stateMutability": "nonpayable",
      "type": "function"
    },
    {
      "constant": false,
      "inputs": [
        {
          "name": "_id",
          "type": "uint256"
        },
        {
          "name": "_address",
          "type": "address"
        }
      ],
      "name": "setEmployeeAddress",
      "outputs": [],
      "payable": false,
      "stateMutability": "nonpayable",
      "type": "function"
    },
    {
      "constant": false,
      "inputs": [
        {
          "name": "_address",
          "type": "address"
        },
        {
          "name": "_date",
          "type": "uint256"
        }
      ],
      "name": "setEmployeePayday",
      "outputs": [],
      "payable": false,
      "stateMutability": "nonpayable",
      "type": "function"
    },
    {
      "constant": false,
      "inputs": [
        {
          "name": "_id",
          "type": "uint256"
        },
        {
          "name": "_monthlySalary",
          "type": "uint256"
        }
      ],
      "name": "setEmployeeSalary",
      "outputs": [],
      "payable": false,
      "stateMutability": "nonpayable",
      "type": "function"
    },
    {
      "constant": true,
      "inputs": [],
      "name": "getEmployeeCount",
      "outputs": [
        {
          "name": "",
          "type": "uint256"
        }
      ],
      "payable": false,
      "stateMutability": "view",
      "type": "function"
    },
    {
      "constant": true,
      "inputs": [
        {
          "name": "_address",
          "type": "address"
        }
      ],
      "name": "getEmployeeID",
      "outputs": [
        {
          "name": "",
          "type": "uint256"
        }
      ],
      "payable": false,
      "stateMutability": "view",
      "type": "function"
    },
    {
      "constant": true,
      "inputs": [
        {
          "name": "_id",
          "type": "uint256"
        }
      ],
      "name": "getEmployeeAddress",
      "outputs": [
        {
          "name": "",
          "type": "address"
        }
      ],
      "payable": false,
      "stateMutability": "view",
      "type": "function"
    },
    {
      "constant": true,
      "inputs": [
        {
          "name": "_address",
          "type": "address"
        }
      ],
      "name": "getEmployeePayday",
      "outputs": [
        {
          "name": "",
          "type": "uint256"
        }
      ],
      "payable": false,
      "stateMutability": "view",
      "type": "function"
    },
    {
      "constant": true,
      "inputs": [
        {
          "name": "_address",
          "type": "address"
        }
      ],
      "name": "getEmployeeSalary",
      "outputs": [
        {
          "name": "",
          "type": "uint256"
        }
      ],
      "payable": false,
      "stateMutability": "view",
      "type": "function"
    },
    {
      "constant": true,
      "inputs": [
        {
          "name": "_id",
          "type": "uint256"
        }
      ],
      "name": "getEmployee",
      "outputs": [
        {
          "name": "_address",
          "type": "address"
        },
        {
          "name": "_payday",
          "type": "uint256"
        },
        {
          "name": "_salary",
          "type": "uint256"
        },
        {
          "name": "_payed",
          "type": "uint256"
        }
      ],
      "payable": false,
      "stateMutability": "view",
      "type": "function"
    },
    {
      "constant": true,
      "inputs": [
        {
          "name": "_id",
          "type": "uint256"
        }
      ],
      "name": "getEmployeeBalance",
      "outputs": [
        {
          "name": "",
          "type": "uint256"
        }
      ],
      "payable": false,
      "stateMutability": "view",
      "type": "function"
    },
    {
      "constant": true,
      "inputs": [],
      "name": "getTotalSupply",
      "outputs": [
        {
          "name": "",
          "type": "uint256"
        }
      ],
      "payable": false,
      "stateMutability": "view",
      "type": "function"
    },
    {
      "constant": false,
      "inputs": [
        {
          "name": "_id",
          "type": "uint256"
        }
      ],
      "name": "removeEmployee",
      "outputs": [],
      "payable": false,
      "stateMutability": "nonpayable",
      "type": "function"
    },
    {
      "constant": false,
      "inputs": [
        {
          "name": "_payPeriod",
          "type": "uint256"
        }
      ],
      "name": "getPay",
      "outputs": [],
      "payable": false,
      "stateMutability": "nonpayable",
      "type": "function"
    }
  ],
  "bytecode": "0x606060405234156200001057600080fd5b60008054600160a060020a03191633600160a060020a031617905562000064620000396200014f565b604051809103906000f08015156200005057600080fd5b64010000000062001337620000a382021704565b6200009d6200007262000160565b604051809103906000f08015156200008957600080fd5b64010000000062001398620000f982021704565b62000171565b60005433600160a060020a03908116911614620000bf57600080fd5b80600160a060020a0381161515620000d657600080fd5b5060018054600160a060020a031916600160a060020a0392909216919091179055565b60005433600160a060020a039081169116146200011557600080fd5b80600160a060020a03811615156200012c57600080fd5b5060028054600160a060020a031916600160a060020a0392909216919091179055565b6040516106fb80620015a683390190565b604051610a228062001ca183390190565b61142580620001816000396000f3006060604052600436106100e25763ffffffff60e060020a6000350416630a0c75aa811461012b57806321ed0f6414610144578063254dc7dd1461015a5780633507651014610170578063612efd20146101985780636e37b5a5146101b75780636f5be0d6146101e95780638da5cb5b146102085780638dd70e2a1461021b5780638ee0199f1461023d578063b26d06b31461025f578063bca9a5c514610272578063c2a63e3b146102c5578063c4e41b22146102d8578063e7b2af7e146102eb578063f2fde38b146102fe578063f39d0aeb1461031d578063fab0eee614610342575b60003411156101295733600160a060020a03167fe1fffcc4923d04b559f4d29a8bfc6cda04eb5b0d3c460751c2402c5c5cc9109c3460405190815260200160405180910390a25b005b341561013657600080fd5b610129600435602435610361565b341561014f57600080fd5b610129600435610490565b341561016557600080fd5b6101296004356105af565b341561017b57600080fd5b610186600435610947565b60405190815260200160405180910390f35b34156101a357600080fd5b610186600160a060020a0360043516610a34565b34156101c257600080fd5b6101cd600435610ab6565b604051600160a060020a03909116815260200160405180910390f35b34156101f457600080fd5b610186600160a060020a0360043516610b36565b341561021357600080fd5b6101cd610bb8565b341561022657600080fd5b610129600160a060020a0360043516602435610bc7565b341561024857600080fd5b610129600435600160a060020a0360243516610c9a565b341561026a57600080fd5b6101cd610dd2565b341561027d57600080fd5b610288600435610de1565b6040518085600160a060020a0316600160a060020a0316815260200184815260200183815260200182815260200194505050505060405180910390f35b34156102d057600080fd5b61018661104f565b34156102e357600080fd5b6101866110c5565b34156102f657600080fd5b6101cd611120565b341561030957600080fd5b610129600160a060020a036004351661112f565b341561032857600080fd5b610129600160a060020a03600435166024356044356111ca565b341561034d57600080fd5b610186600160a060020a03600435166112b5565b6000805433600160a060020a0390811691161461037d57600080fd5b816000811161038b57600080fd5b600154600160a060020a031663b93f9b0a8560405160e060020a63ffffffff84160281526004810191909152602401602060405180830381600087803b15156103d357600080fd5b5af115156103e057600080fd5b5050506040518051600154909350600160a060020a031690506328fca743838560405160e060020a63ffffffff8516028152600160a060020a0390921660048301526024820152604401600060405180830381600087803b151561044357600080fd5b5af1151561045057600080fd5b5050508282600160a060020a03167fdb564ff35998be08873f807f04f505d363321d39781dec516f7bbe1c86ccbca460405160405180910390a350505050565b6000805433600160a060020a039081169116146104ac57600080fd5b600154600160a060020a031663b93f9b0a8360405160e060020a63ffffffff84160281526004810191909152602401602060405180830381600087803b15156104f457600080fd5b5af1151561050157600080fd5b5050506040518051600154909250600160a060020a031690506329092d0e8260405160e060020a63ffffffff8416028152600160a060020a039091166004820152602401600060405180830381600087803b151561055e57600080fd5b5af1151561056b57600080fd5b50505080600160a060020a03167f0df1b9563736a12ee1ee68f0afa65fea048466741b23610aec9b9edf5ac049808360405190815260200160405180910390a25050565b60015460009081908390600160a060020a0316630da32a6b3360405160e060020a63ffffffff8416028152600160a060020a039091166004820152602401602060405180830381600087803b151561060657600080fd5b5af1151561061357600080fd5b50505060405180518214905061062857600080fd5b600254600090600160a060020a03166370a0823181638da5cb5b6040518163ffffffff1660e060020a028152600401602060405180830381600087803b151561067057600080fd5b5af1151561067d57600080fd5b5050506040518051905060405160e060020a63ffffffff8416028152600160a060020a039091166004820152602401602060405180830381600087803b15156106c557600080fd5b5af115156106d257600080fd5b5050506040518051600154909250829150600160a060020a0316634b051a8b3360405160e060020a63ffffffff8416028152600160a060020a039091166004820152602401602060405180830381600087803b151561073057600080fd5b5af1151561073d57600080fd5b5050506040518051905010151561075357600080fd5b600154600160a060020a0316634b051a8b3360405160e060020a63ffffffff8416028152600160a060020a039091166004820152602401602060405180830381600087803b15156107a357600080fd5b5af115156107b057600080fd5b5050506040518051600254909550600160a060020a0316905063a9059cbb338660405160e060020a63ffffffff8516028152600160a060020a0390921660048301526024820152604401602060405180830381600087803b151561081357600080fd5b5af1151561082057600080fd5b50505060405180515050600154600160a060020a0316630da32a6b3360405160e060020a63ffffffff8416028152600160a060020a039091166004820152602401602060405180830381600087803b151561087a57600080fd5b5af1151561088757600080fd5b50505060405180516001805491019450600160a060020a03169050635bf1e2e1338560405160e060020a63ffffffff8516028152600160a060020a0390921660048301526024820152604401600060405180830381600087803b15156108ec57600080fd5b5af115156108f957600080fd5b5050600019840193600160a060020a03331691507fd394d71ae796e02567817125756d81a9ed17b9ea44e6e7f3e7da5fb12b2bab7a9060405190815260200160405180910390a25050505050565b60008054819033600160a060020a0390811691161461096557600080fd5b600154600160a060020a031663b93f9b0a8460405160e060020a63ffffffff84160281526004810191909152602401602060405180830381600087803b15156109ad57600080fd5b5af115156109ba57600080fd5b5050506040518051600254909250600160a060020a031690506370a082318260405160e060020a63ffffffff8416028152600160a060020a039091166004820152602401602060405180830381600087803b1515610a1757600080fd5b5af11515610a2457600080fd5b5050506040518051949350505050565b6000805433600160a060020a03908116911614610a5057600080fd5b81600160a060020a0381161515610a6657600080fd5b600154600160a060020a0316630da32a6b8460405160e060020a63ffffffff8416028152600160a060020a039091166004820152602401602060405180830381600087803b1515610a1757600080fd5b6000805433600160a060020a03908116911614610ad257600080fd5b600154600160a060020a031663b93f9b0a8360405160e060020a63ffffffff84160281526004810191909152602401602060405180830381600087803b1515610b1a57600080fd5b5af11515610b2757600080fd5b50505060405180519392505050565b6000805433600160a060020a03908116911614610b5257600080fd5b81600160a060020a0381161515610b6857600080fd5b600154600160a060020a0316634b051a8b8460405160e060020a63ffffffff8416028152600160a060020a039091166004820152602401602060405180830381600087803b1515610a1757600080fd5b600054600160a060020a031681565b60005433600160a060020a03908116911614610be257600080fd5b81600160a060020a0381161515610bf857600080fd5b600154600160a060020a0316635bf1e2e1848460405160e060020a63ffffffff8516028152600160a060020a0390921660048301526024820152604401600060405180830381600087803b1515610c4e57600080fd5b5af11515610c5b57600080fd5b5050508183600160a060020a03167face4d9e8fdd2439f1332eb57fd5514af033d86023f6653b2576444d79316b09360405160405180910390a3505050565b6000805433600160a060020a03908116911614610cb657600080fd5b81600160a060020a0381161515610ccc57600080fd5b600154600160a060020a031663b93f9b0a8560405160e060020a63ffffffff84160281526004810191909152602401602060405180830381600087803b1515610d1457600080fd5b5af11515610d2157600080fd5b5050506040518051600154909350600160a060020a03169050633b58524d838560405160e060020a63ffffffff8516028152600160a060020a03928316600482015291166024820152604401600060405180830381600087803b1515610d8657600080fd5b5af11515610d9357600080fd5b50505081600160a060020a03167f15a7258e01e3365e6b9dc25bca6e6dd7e374fa9ef72a9e7fb7b56cf69a1320f460405160405180910390a250505050565b600254600160a060020a031681565b6000805481908190819033600160a060020a03908116911614610e0357600080fd5b600154600160a060020a031663b93f9b0a8660405160e060020a63ffffffff84160281526004810191909152602401602060405180830381600087803b1515610e4b57600080fd5b5af11515610e5857600080fd5b5050506040518051600154909550600160a060020a03169050630da32a6b8163b93f9b0a8860405160e060020a63ffffffff84160281526004810191909152602401602060405180830381600087803b1515610eb357600080fd5b5af11515610ec057600080fd5b5050506040518051905060405160e060020a63ffffffff8416028152600160a060020a039091166004820152602401602060405180830381600087803b1515610f0857600080fd5b5af11515610f1557600080fd5b5050506040518051600154909450600160a060020a03169050634b051a8b8163b93f9b0a8860405160e060020a63ffffffff84160281526004810191909152602401602060405180830381600087803b1515610f7057600080fd5b5af11515610f7d57600080fd5b5050506040518051905060405160e060020a63ffffffff8416028152600160a060020a039091166004820152602401602060405180830381600087803b1515610fc557600080fd5b5af11515610fd257600080fd5b5050506040518051600254909350600160a060020a031690506370a082318560405160e060020a63ffffffff8416028152600160a060020a039091166004820152602401602060405180830381600087803b151561102f57600080fd5b5af1151561103c57600080fd5b5050506040518051905090509193509193565b6000805433600160a060020a0390811691161461106b57600080fd5b600154600160a060020a031663a87d942c6040518163ffffffff1660e060020a028152600401602060405180830381600087803b15156110aa57600080fd5b5af115156110b757600080fd5b505050604051805191505090565b6000805433600160a060020a039081169116146110e157600080fd5b600254600160a060020a03166318160ddd6040518163ffffffff1660e060020a028152600401602060405180830381600087803b15156110aa57600080fd5b600154600160a060020a031681565b60005433600160a060020a0390811691161461114a57600080fd5b600160a060020a038116151561115f57600080fd5b600054600160a060020a0380831691167f8be0079c531659141344cd1fd0a4f28419497f9722a3daafe3b4186f6b6457e060405160405180910390a36000805473ffffffffffffffffffffffffffffffffffffffff1916600160a060020a0392909216919091179055565b60005433600160a060020a039081169116146111e557600080fd5b82600160a060020a03811615156111fb57600080fd5b826000811161120957600080fd5b600154600160a060020a0316635101e12886868660405160e060020a63ffffffff8616028152600160a060020a03909316600484015260248301919091526044820152606401600060405180830381600087803b151561126857600080fd5b5af1151561127557600080fd5b50505084600160a060020a03167f37e9308d0d750d43a2e5ef16b6d47b60b2741e12be41128ca3bec877db4f9dcb60405160405180910390a25050505050565b6000805433600160a060020a039081169116146112d157600080fd5b81600160a060020a03811615156112e757600080fd5b600154600160a060020a03166365f68c898460405160e060020a63ffffffff8416028152600160a060020a039091166004820152602401602060405180830381600087803b1515610a1757600080fd5b60005433600160a060020a0390811691161461135257600080fd5b80600160a060020a038116151561136857600080fd5b506001805473ffffffffffffffffffffffffffffffffffffffff1916600160a060020a0392909216919091179055565b60005433600160a060020a039081169116146113b357600080fd5b80600160a060020a03811615156113c957600080fd5b506002805473ffffffffffffffffffffffffffffffffffffffff1916600160a060020a03929092169190911790555600a165627a7a723058201f9ed0f1de8a045f26054dad15e67fa87bda494418bbb43b5cbb3f43d7471260002960606040526001805560008054600160a060020a033316600160a060020a03199091161790556106c7806100346000396000f3006060604052600436106100b95763ffffffff7c01000000000000000000000000000000000000000000000000000000006000350416630da32a6b81146100be57806328fca743146100ef57806329092d0e146101135780633b58524d146101325780634b051a8b146101575780635101e128146101765780635bf1e2e11461019b57806365f68c89146101bd5780638da5cb5b146101dc578063a87d942c1461020b578063b93f9b0a1461021e578063f2fde38b14610234575b600080fd5b34156100c957600080fd5b6100dd600160a060020a0360043516610253565b60405190815260200160405180910390f35b34156100fa57600080fd5b610111600160a060020a0360043516602435610282565b005b341561011e57600080fd5b610111600160a060020a03600435166102cc565b341561013d57600080fd5b610111600160a060020a0360043581169060243516610364565b341561016257600080fd5b6100dd600160a060020a0360043516610414565b341561018157600080fd5b610111600160a060020a0360043516602435604435610443565b34156101a657600080fd5b610111600160a060020a036004351660243561050f565b34156101c857600080fd5b6100dd600160a060020a0360043516610556565b34156101e757600080fd5b6101ef610585565b604051600160a060020a03909116815260200160405180910390f35b341561021657600080fd5b6100dd610594565b341561022957600080fd5b6101ef60043561059a565b341561023f57600080fd5b610111600160a060020a03600435166105d9565b60008161025f81610674565b5460ff16151561026e57600080fd5b61027783610674565b600401549392505050565b6000805433600160a060020a0390811691161461029e57600080fd5b826102a881610674565b5460ff1615156102b757600080fd5b6102c084610674565b60050192909255505050565b6000805433600160a060020a039081169116146102e857600080fd5b816102f281610674565b5460ff16151561030157600080fd5b61030a83610674565b60006004820181905560058201819055815460ff1916825560018201556002808201805473ffffffffffffffffffffffffffffffffffffffff19908116909155600390920180549092169091558054600019019055505050565b6000805433600160a060020a0390811691161461038057600080fd5b8261038a81610674565b5460ff16151561039957600080fd5b826103a381610674565b5460ff16156103b157600080fd5b6103ba85610674565b600160a060020a0395861660009081526004602052604080822082905560028301805473ffffffffffffffffffffffffffffffffffffffff1916979098169687179097556001909101549481529490942092909255505050565b60008161042081610674565b5460ff16151561042f57600080fd5b61043883610674565b600501549392505050565b60005433600160a060020a0390811691161461045e57600080fd5b8261046881610674565b5460ff161561047657600080fd5b50600180546000908152600360209081526040808320805460ff19168517905583548084528184208086019190915560029081018054600160a060020a0390991673ffffffffffffffffffffffffffffffffffffffff1990991689179055845484528184206004908101969096558454845281842060050196909655835496835293905291909120839055815481019091559081019055565b60005433600160a060020a0390811691161461052a57600080fd5b8161053481610674565b5460ff16151561054357600080fd5b8161054d84610674565b60040155505050565b60008161056281610674565b5460ff16151561057157600080fd5b61057a83610674565b600101549392505050565b600054600160a060020a031681565b60025490565b600081815260036020526040812054829060ff1615156105b957600080fd5b5050600090815260036020526040902060020154600160a060020a031690565b60005433600160a060020a039081169116146105f457600080fd5b600160a060020a038116151561060957600080fd5b600054600160a060020a0380831691167f8be0079c531659141344cd1fd0a4f28419497f9722a3daafe3b4186f6b6457e060405160405180910390a36000805473ffffffffffffffffffffffffffffffffffffffff1916600160a060020a0392909216919091179055565b600160a060020a0316600090815260046020908152604080832054835260039091529020905600a165627a7a723058207ff0b3ec17241c98812e3781b46e73808e52d442b676c199e51cc52095aa970100296060604052341561000f57600080fd5b60038054600160a060020a03191633600160a060020a031690811790915569021e19e0c9bab2400000600181905560008281526020819052604080822083905590917fddf252ad1be2c89b69c2b068fc378daa952ba7f163c4a11628f55a4df523b3ef915190815260200160405180910390a3610991806100916000396000f3006060604052600436106100cf5763ffffffff7c010000000000000000000000000000000000000000000000000000000060003504166306fdde0381146100d4578063095ea7b31461015e57806318160ddd1461019457806323b872dd146101b95780632ff2e9dc146101e1578063313ce567146101f4578063661884631461021d57806370a082311461023f5780638da5cb5b1461025e57806395d89b411461028d578063a9059cbb146102a0578063d73dd623146102c2578063dd62ed3e146102e4578063f2fde38b14610309575b600080fd5b34156100df57600080fd5b6100e761032a565b60405160208082528190810183818151815260200191508051906020019080838360005b8381101561012357808201518382015260200161010b565b50505050905090810190601f1680156101505780820380516001836020036101000a031916815260200191505b509250505060405180910390f35b341561016957600080fd5b610180600160a060020a0360043516602435610361565b604051901515815260200160405180910390f35b341561019f57600080fd5b6101a76103cd565b60405190815260200160405180910390f35b34156101c457600080fd5b610180600160a060020a03600435811690602435166044356103d3565b34156101ec57600080fd5b6101a7610553565b34156101ff57600080fd5b610207610561565b60405160ff909116815260200160405180910390f35b341561022857600080fd5b610180600160a060020a0360043516602435610566565b341561024a57600080fd5b6101a7600160a060020a0360043516610660565b341561026957600080fd5b61027161067b565b604051600160a060020a03909116815260200160405180910390f35b341561029857600080fd5b6100e761068a565b34156102ab57600080fd5b610180600160a060020a03600435166024356106c1565b34156102cd57600080fd5b610180600160a060020a03600435166024356107d3565b34156102ef57600080fd5b6101a7600160a060020a0360043581169060243516610877565b341561031457600080fd5b610328600160a060020a03600435166108a2565b005b60408051908101604052600d81527f456d706c6f796565546f6b656e00000000000000000000000000000000000000602082015281565b600160a060020a03338116600081815260026020908152604080832094871680845294909152808220859055909291907f8c5be1e5ebec7d5bd14f71427d1e84f3dd0314c0f7b2291e5b200ac8c7c3b9259085905190815260200160405180910390a350600192915050565b60015490565b6000600160a060020a03831615156103ea57600080fd5b600160a060020a03841660009081526020819052604090205482111561040f57600080fd5b600160a060020a038085166000908152600260209081526040808320339094168352929052205482111561044257600080fd5b600160a060020a03841660009081526020819052604090205461046b908363ffffffff61093d16565b600160a060020a0380861660009081526020819052604080822093909355908516815220546104a0908363ffffffff61094f16565b600160a060020a03808516600090815260208181526040808320949094558783168252600281528382203390931682529190915220546104e6908363ffffffff61093d16565b600160a060020a03808616600081815260026020908152604080832033861684529091529081902093909355908516917fddf252ad1be2c89b69c2b068fc378daa952ba7f163c4a11628f55a4df523b3ef9085905190815260200160405180910390a35060019392505050565b69021e19e0c9bab240000081565b601281565b600160a060020a033381166000908152600260209081526040808320938616835292905290812054808311156105c357600160a060020a0333811660009081526002602090815260408083209388168352929052908120556105fa565b6105d3818463ffffffff61093d16565b600160a060020a033381166000908152600260209081526040808320938916835292905220555b600160a060020a0333811660008181526002602090815260408083209489168084529490915290819020547f8c5be1e5ebec7d5bd14f71427d1e84f3dd0314c0f7b2291e5b200ac8c7c3b925915190815260200160405180910390a35060019392505050565b600160a060020a031660009081526020819052604090205490565b600354600160a060020a031681565b60408051908101604052600381527f454d540000000000000000000000000000000000000000000000000000000000602082015281565b6000600160a060020a03831615156106d857600080fd5b600160a060020a0333166000908152602081905260409020548211156106fd57600080fd5b600160a060020a033316600090815260208190526040902054610726908363ffffffff61093d16565b600160a060020a03338116600090815260208190526040808220939093559085168152205461075b908363ffffffff61094f16565b60008085600160a060020a0316600160a060020a031681526020019081526020016000208190555082600160a060020a031633600160a060020a03167fddf252ad1be2c89b69c2b068fc378daa952ba7f163c4a11628f55a4df523b3ef8460405190815260200160405180910390a350600192915050565b600160a060020a03338116600090815260026020908152604080832093861683529290529081205461080b908363ffffffff61094f16565b600160a060020a0333811660008181526002602090815260408083209489168084529490915290819020849055919290917f8c5be1e5ebec7d5bd14f71427d1e84f3dd0314c0f7b2291e5b200ac8c7c3b92591905190815260200160405180910390a350600192915050565b600160a060020a03918216600090815260026020908152604080832093909416825291909152205490565b60035433600160a060020a039081169116146108bd57600080fd5b600160a060020a03811615156108d257600080fd5b600354600160a060020a0380831691167f8be0079c531659141344cd1fd0a4f28419497f9722a3daafe3b4186f6b6457e060405160405180910390a36003805473ffffffffffffffffffffffffffffffffffffffff1916600160a060020a0392909216919091179055565b60008282111561094957fe5b50900390565b60008282018381101561095e57fe5b93925050505600a165627a7a72305820834c54796096db36f951101d36d24879fbc45ed74fa7f615df83277254ed147f0029",
  "source": "pragma solidity ^0.4.19;\n\n/// @title Payroll contract - Manage employees and token payments\n/// @author Nicolas frega - <nicolas.frega@srax.com>\n\nimport './InterfacePayroll.sol';\nimport './EmployeeStorage.sol';\nimport './EmployeeToken.sol';\n\ncontract Payroll is InterfacePayroll, Ownable {\n    using SafeMath for uint256;\n\n    /*\n     *  Events\n     */\n    event Deposit(address indexed sender, uint value);\n    event NewEmployee(address indexed newEmployee);\n    event EmployeeAddressChange(address indexed newAddress);\n    event EmployeePaydayChange(address indexed employeeAddress, uint indexed newPayday);\n    event EmployeeSalaryChange(address indexed employeeAddress, uint indexed newSalary);\n    event EmployeeRemoved(address indexed employeeAddress, uint indexed_id);\n    event EmployeePayed(address indexed employeeAddress, uint payPeriod);\n\n    /*\n     *  Storage\n     */\n    InterfaceEmployeeStorage public employeeStorage;\n    EmployeeToken public employeeToken;\n\n    /*\n    * Modifiers\n    */\n    modifier validAddress(address _address) {\n        require (_address != 0x0);\n        _;\n    }\n\n    modifier higherThanZero(uint256 _uint) {\n        require(_uint > 0);\n        _;\n    }\n\n    modifier employeePayPeriodExists(uint256 _payPeriod) {\n        require(_payPeriod == employeeStorage.getLatestPayday(msg.sender));\n        _;\n    }\n\n    modifier enoughTokensLeft() {\n        uint256 tokensLeft = employeeToken.balanceOf(employeeToken.owner());\n        require(employeeStorage.getMonthlySalary(msg.sender) < tokensLeft);\n        _;\n    }\n\n    /// @dev Fallback function allows to deposit ether.\n    function()\n        public\n        payable\n    {\n        if (msg.value > 0) {\n            emit Deposit(msg.sender, msg.value);\n          }\n    }\n\n     /*\n      * Public functions\n      */\n    /// @dev Contract constructor sets employee storage and employee token.\n    function Payroll()\n        public\n    {\n        setEmployeeStorage(new EmployeeStorage());\n        setEmployeeToken(new EmployeeToken());\n    }\n\n    /// @dev adds a new employee.\n    /// @param _address Address of new employee.\n    /// @param _monthlySalary uint of salary.\n    /// @param _startDate uint of starting date.\n    function addEmployee(address _address, uint256 _monthlySalary, uint256 _startDate)\n        public\n        onlyOwner\n        validAddress(_address)\n        higherThanZero(_monthlySalary)\n    {\n        employeeStorage.add(_address, _monthlySalary, _startDate);\n        emit NewEmployee(_address);\n    }\n\n    /// @dev changes the address of an existing employee.\n    /// @param _id uint of existing employee id.\n    /// @param _address Address of employee.\n    function setEmployeeAddress(uint256 _id, address _address)\n        public\n        onlyOwner\n        validAddress(_address)\n    {\n        address employeeAddress = employeeStorage.getAddress(_id);\n        employeeStorage.setAddress(employeeAddress, _address);\n        emit EmployeeAddressChange(employeeAddress);\n    }\n\n    /// @dev changes the payday of an existing employee.\n    /// @param _address Address of employee.\n    /// @param _date uint of new pay day.\n    function setEmployeePayday(address _address, uint256 _date)\n        public\n        onlyOwner\n        validAddress(_address)\n    {\n        employeeStorage.setlatestPayday(_address, _date);\n        emit EmployeePaydayChange(_address, _date);\n    }\n\n    /// @dev changes the salary of an existing employee.\n    /// @param _id uint of existing employee id.\n    /// @param _monthlySalary uint of new pay day.\n    function setEmployeeSalary(uint256 _id, uint256 _monthlySalary)\n        public\n        onlyOwner\n        higherThanZero(_monthlySalary)\n    {\n        address employeeAddress = employeeStorage.getAddress(_id);\n        employeeStorage.setMonthlySalary(employeeAddress, _monthlySalary);\n        emit EmployeeSalaryChange(employeeAddress, _monthlySalary);\n\n    }\n\n    /// @dev gets the total employee count.\n    /// @return Returns employee count.\n    function getEmployeeCount()\n        public\n        onlyOwner\n        constant\n        returns (uint256)\n    {\n        return employeeStorage.getCount();\n    }\n\n    /// @dev gets the employee ID.\n    /// @param _address Address of existing employee.\n    /// @return Returns employee ID.\n    function getEmployeeID(address _address)\n        public\n        onlyOwner\n        validAddress(_address)\n        constant\n        returns (uint256)\n    {\n        return employeeStorage.getId(_address);\n    }\n\n    /// @dev gets the total employee address from ID.\n    /// @param _id ID of existing employee.\n    /// @return Returns employee address.\n    function getEmployeeAddress(uint256 _id)\n        public\n        onlyOwner\n        constant\n        returns (address)\n    {\n        return employeeStorage.getAddress(_id);\n    }\n\n    /// @dev gets the latest employee pay day.\n    /// @param _address Address of existing employee.\n    /// @return Returns employee pay day.\n    function getEmployeePayday(address _address)\n        public\n        onlyOwner\n        validAddress(_address)\n        constant\n        returns (uint256)\n    {\n        return employeeStorage.getLatestPayday(_address);\n    }\n\n    /// @dev gets the employee salary.\n    /// @param _address Address of existing employee.\n    /// @return Returns employee salary.\n    function getEmployeeSalary(address _address)\n        public\n        onlyOwner\n        validAddress(_address)\n        constant\n        returns (uint256)\n    {\n        return employeeStorage.getMonthlySalary(_address);\n    }\n\n    /// @dev gets the total employee info.\n    /// @param _id ID of existing employee.\n    /// @return Returns all existing employee info.\n    function getEmployee(uint256 _id)\n        public\n        onlyOwner\n        constant\n        returns (address _address, uint256 _payday, uint256 _salary, uint256 _payed)\n    {\n        _address = employeeStorage.getAddress(_id);\n        _payday = employeeStorage.getLatestPayday(employeeStorage.getAddress(_id));\n        _salary = employeeStorage.getMonthlySalary(employeeStorage.getAddress(_id));\n        _payed = employeeToken.balanceOf(_address);\n    }\n\n    /// @dev gets the balance of employee.\n    /// @param _id ID of existing employee.\n    /// @return Returns employee balance.\n    function getEmployeeBalance(uint256 _id)\n        public\n        onlyOwner\n        constant\n        returns (uint256)\n    {\n        address employeeAddress = employeeStorage.getAddress(_id);\n        return employeeToken.balanceOf(employeeAddress);\n    }\n\n    /// @dev gets the balance left of employee tokens.\n    /// @return Returns the token balance.\n    function getTotalSupply()\n        public\n        onlyOwner\n        constant\n        returns (uint256)\n    {\n        return employeeToken.totalSupply();\n    }\n\n    /// @dev removes and employee.\n    /// @param _id ID of existing employee.\n    function removeEmployee(uint256 _id)\n        public\n        onlyOwner\n    {\n        address employeeAddress = employeeStorage.getAddress(_id);\n        employeeStorage.remove(employeeAddress);\n        emit EmployeeRemoved(employeeAddress, _id);\n    }\n\n    /// @dev allows employee to get payed.\n    /// @param _payPeriod of requested payment.\n    function getPay (uint256 _payPeriod)\n        public\n        employeePayPeriodExists(_payPeriod)\n        enoughTokensLeft()\n    {\n        uint256 employeeSalary = employeeStorage.getMonthlySalary(msg.sender);\n        employeeToken.transfer(msg.sender, employeeSalary);\n\n        uint256 newPayday = employeeStorage.getLatestPayday(msg.sender);\n        newPayday++;\n        employeeStorage.setlatestPayday(msg.sender, newPayday);\n        emit EmployeePayed(msg.sender, newPayday--);\n\n    }\n\n    /*\n     * Internal functions\n     */\n     /// @dev sets the employee storage contract.\n     /// @param _newEmployeeStorage Address of new employee storage.\n     function setEmployeeStorage(address _newEmployeeStorage)\n         internal\n         onlyOwner\n         validAddress(_newEmployeeStorage)\n     {\n         employeeStorage = InterfaceEmployeeStorage(_newEmployeeStorage);\n     }\n\n     /// @dev sets the employee token contract.\n     /// @param _newEmployeetoken Address of new employee token.\n     function setEmployeeToken(address _newEmployeetoken)\n         internal\n         onlyOwner\n         validAddress(_newEmployeetoken)\n     {\n         employeeToken = EmployeeToken(_newEmployeetoken);\n     }\n\n}\n",
  "sourcePath": "/home/nico/Desktop/public_repos/payroll/contracts/Payroll.sol",
  "compiler": {
    "name": "solc",
    "version": "0.4.21+commit.dfe3193c.Emscripten.clang"
  },
  "schemaVersion": "2.0.0",
  "updatedAt": "2018-04-14T21:12:58.121Z"
}